{
  "address": "0xb8c898e946a1E82f244c7fcAa1f6BD4dE028D559",
  "abi": [
    {
      "inputs": [
        {
          "internalType": "address",
          "name": "_storage",
          "type": "address"
        }
      ],
      "stateMutability": "nonpayable",
      "type": "constructor"
    },
    {
      "anonymous": false,
      "inputs": [
        {
          "indexed": false,
          "internalType": "address",
          "name": "newException",
          "type": "address"
        },
        {
          "indexed": false,
          "internalType": "uint256",
          "name": "exceptionList",
          "type": "uint256"
        }
      ],
      "name": "CurveExceptionAdded",
      "type": "event"
    },
    {
      "anonymous": false,
      "inputs": [
        {
          "indexed": false,
          "internalType": "address",
          "name": "oldException",
          "type": "address"
        },
        {
          "indexed": false,
          "internalType": "uint256",
          "name": "exceptionList",
          "type": "uint256"
        }
      ],
      "name": "CurveExceptionRemoved",
      "type": "event"
    },
    {
      "anonymous": false,
      "inputs": [
        {
          "indexed": false,
          "internalType": "address",
          "name": "newOutputToken",
          "type": "address"
        },
        {
          "indexed": false,
          "internalType": "address",
          "name": "oldOutputToken",
          "type": "address"
        }
      ],
      "name": "DefinedOutputChanged",
      "type": "event"
    },
    {
      "anonymous": false,
      "inputs": [
        {
          "indexed": false,
          "internalType": "address",
          "name": "newFactory",
          "type": "address"
        },
        {
          "indexed": false,
          "internalType": "address",
          "name": "oldFactory",
          "type": "address"
        }
      ],
      "name": "FactoryChanged",
      "type": "event"
    },
    {
      "anonymous": false,
      "inputs": [
        {
          "indexed": false,
          "internalType": "address",
          "name": "newKeyToken",
          "type": "address"
        }
      ],
      "name": "KeyTokenAdded",
      "type": "event"
    },
    {
      "anonymous": false,
      "inputs": [
        {
          "indexed": false,
          "internalType": "address",
          "name": "keyToken",
          "type": "address"
        }
      ],
      "name": "KeyTokenRemoved",
      "type": "event"
    },
    {
      "anonymous": false,
      "inputs": [
        {
          "indexed": false,
          "internalType": "address",
          "name": "newPricingToken",
          "type": "address"
        }
      ],
      "name": "PricingTokenAdded",
      "type": "event"
    },
    {
      "anonymous": false,
      "inputs": [
        {
          "indexed": false,
          "internalType": "address",
          "name": "pricingToken",
          "type": "address"
        }
      ],
      "name": "PricingTokenRemoved",
      "type": "event"
    },
    {
      "anonymous": false,
      "inputs": [
        {
          "indexed": false,
          "internalType": "address",
          "name": "newRegistry",
          "type": "address"
        },
        {
          "indexed": false,
          "internalType": "address",
          "name": "oldRegistry",
          "type": "address"
        }
      ],
      "name": "RegistryChanged",
      "type": "event"
    },
    {
      "inputs": [
        {
          "internalType": "address",
          "name": "newToken",
          "type": "address"
        }
      ],
      "name": "addKeyToken",
      "outputs": [],
      "stateMutability": "nonpayable",
      "type": "function"
    },
    {
      "inputs": [
        {
          "internalType": "address",
          "name": "newToken",
          "type": "address"
        }
      ],
      "name": "addPricingToken",
      "outputs": [],
      "stateMutability": "nonpayable",
      "type": "function"
    },
    {
      "inputs": [
        {
          "internalType": "address",
          "name": "newOutputToken",
          "type": "address"
        }
      ],
      "name": "changeDefinedOutput",
      "outputs": [],
      "stateMutability": "nonpayable",
      "type": "function"
    },
    {
      "inputs": [
        {
          "internalType": "address",
          "name": "newFactory",
          "type": "address"
        }
      ],
      "name": "changeQuickFactory",
      "outputs": [],
      "stateMutability": "nonpayable",
      "type": "function"
    },
    {
      "inputs": [
        {
          "internalType": "address",
          "name": "newFactory",
          "type": "address"
        }
      ],
      "name": "changeSushiFactory",
      "outputs": [],
      "stateMutability": "nonpayable",
      "type": "function"
    },
    {
      "inputs": [
        {
          "internalType": "address",
          "name": "token",
          "type": "address"
        }
      ],
      "name": "checkKeyToken",
      "outputs": [
        {
          "internalType": "bool",
          "name": "",
          "type": "bool"
        }
      ],
      "stateMutability": "view",
      "type": "function"
    },
    {
      "inputs": [
        {
          "internalType": "address",
          "name": "token",
          "type": "address"
        }
      ],
      "name": "checkPricingToken",
      "outputs": [
        {
          "internalType": "bool",
          "name": "",
          "type": "bool"
        }
      ],
      "stateMutability": "view",
      "type": "function"
    },
    {
      "inputs": [
        {
          "internalType": "address",
          "name": "token",
          "type": "address"
        }
      ],
      "name": "computePrice",
      "outputs": [
        {
          "internalType": "uint256",
          "name": "",
          "type": "uint256"
        }
      ],
      "stateMutability": "view",
      "type": "function"
    },
    {
      "inputs": [],
      "name": "definedOutputToken",
      "outputs": [
        {
          "internalType": "address",
          "name": "",
          "type": "address"
        }
      ],
      "stateMutability": "view",
      "type": "function"
    },
    {
      "inputs": [
        {
          "internalType": "address",
          "name": "token",
          "type": "address"
        }
      ],
      "name": "getPrice",
      "outputs": [
        {
          "internalType": "uint256",
          "name": "",
          "type": "uint256"
        }
      ],
      "stateMutability": "view",
      "type": "function"
    },
    {
      "inputs": [
        {
          "internalType": "address",
          "name": "token",
          "type": "address"
        }
      ],
      "name": "getUniUnderlying",
      "outputs": [
        {
          "internalType": "address[2]",
          "name": "",
          "type": "address[2]"
        },
        {
          "internalType": "uint256[2]",
          "name": "",
          "type": "uint256[2]"
        }
      ],
      "stateMutability": "view",
      "type": "function"
    },
    {
      "inputs": [],
      "name": "governance",
      "outputs": [
        {
          "internalType": "address",
          "name": "",
          "type": "address"
        }
      ],
      "stateMutability": "view",
      "type": "function"
    },
    {
      "inputs": [
        {
          "internalType": "uint256",
          "name": "",
          "type": "uint256"
        }
      ],
      "name": "keyTokens",
      "outputs": [
        {
          "internalType": "address",
          "name": "",
          "type": "address"
        }
      ],
      "stateMutability": "view",
      "type": "function"
    },
    {
      "inputs": [],
      "name": "precisionDecimals",
      "outputs": [
        {
          "internalType": "uint256",
          "name": "",
          "type": "uint256"
        }
      ],
      "stateMutability": "view",
      "type": "function"
    },
    {
      "inputs": [
        {
          "internalType": "uint256",
          "name": "",
          "type": "uint256"
        }
      ],
      "name": "pricingTokens",
      "outputs": [
        {
          "internalType": "address",
          "name": "",
          "type": "address"
        }
      ],
      "stateMutability": "view",
      "type": "function"
    },
    {
      "inputs": [],
      "name": "quickswapFactoryAddress",
      "outputs": [
        {
          "internalType": "address",
          "name": "",
          "type": "address"
        }
      ],
      "stateMutability": "view",
      "type": "function"
    },
    {
      "inputs": [
        {
          "internalType": "address",
          "name": "keyToken",
          "type": "address"
        }
      ],
      "name": "removeKeyToken",
      "outputs": [],
      "stateMutability": "nonpayable",
      "type": "function"
    },
    {
      "inputs": [
        {
          "internalType": "address",
          "name": "pricingToken",
          "type": "address"
        }
      ],
      "name": "removePricingToken",
      "outputs": [],
      "stateMutability": "nonpayable",
      "type": "function"
    },
    {
      "inputs": [
        {
          "internalType": "address",
          "name": "_store",
          "type": "address"
        }
      ],
      "name": "setStorage",
      "outputs": [],
      "stateMutability": "nonpayable",
      "type": "function"
    },
    {
      "inputs": [],
      "name": "store",
      "outputs": [
        {
          "internalType": "contract Storage",
          "name": "",
          "type": "address"
        }
      ],
      "stateMutability": "view",
      "type": "function"
    },
    {
      "inputs": [],
      "name": "sushiswapFactoryAddress",
      "outputs": [
        {
          "internalType": "address",
          "name": "",
          "type": "address"
        }
      ],
      "stateMutability": "view",
      "type": "function"
    }
  ],
  "transactionHash": "0xf7d77d8261c84e4a25c56e67a05d5ed421cc719957f9f35a5331caece77afd01",
  "args": [
    "0x77770894742195507Db5245553c64A63EC636978"
  ],
  "solcInputHash": "3b09d711fc19ca306d2a23d829517591",
  "bytecode": "0x600180546001600160a01b0319908116735757371414417b8c6caad45baef941abc7d3ab32179182905560028054821673c35dadb65012ec5796536bd9864ed8773abc74c4179081905560126003556004805483166001600160a01b03948516179055600580549092169216919091179055610140604052730d500b1d8e8ef31e21c99d1db9a6444d3adf12706080908152732791bca1f2de4661ed88a30c99a7a9449aa8417460a052737ceb23fd6bc0add59e62ac25578270cff1b9f61960c052738f3cf7ad23cd3cadbd9735aff958023239c6a06360e05273c2132d05d31c914a87c6611c10748aeb04b58e8f61010052731bfd67037b42cf73acf2047067bd4f2c47d9bfd6610120526200011a9060069081620002b0565b506040805160c081018252730d500b1d8e8ef31e21c99d1db9a6444d3adf12708152732791bca1f2de4661ed88a30c99a7a9449aa841746020820152737ceb23fd6bc0add59e62ac25578270cff1b9f61991810191909152738f3cf7ad23cd3cadbd9735aff958023239c6a063606082015273c2132d05d31c914a87c6611c10748aeb04b58e8f6080820152731bfd67037b42cf73acf2047067bd4f2c47d9bfd660a0820152620001d0906007906006620002b0565b50600880546001600160a01b031916732791bca1f2de4661ed88a30c99a7a9449aa841741790553480156200020457600080fd5b506040516200248238038062002482833981810160405260208110156200022a57600080fd5b5051806001600160a01b03811662000289576040805162461bcd60e51b815260206004820152601e60248201527f6e65772073746f726167652073686f756c646e277420626520656d7074790000604482015290519081900360640190fd5b600080546001600160a01b0319166001600160a01b0392909216919091179055506200033b565b82805482825590600052602060002090810192821562000308579160200282015b828111156200030857825182546001600160a01b0319166001600160a01b03909116178255602090920191600190910190620002d1565b50620003169291506200031a565b5090565b5b80821115620003165780546001600160a01b03191681556001016200031b565b612137806200034b6000396000f3fe608060405234801561001057600080fd5b50600436106101075760003560e01c8063225f879c1461010c57806331aa95e51461013457806341976e091461015a5780634897fa451461019257806349a40e0f1461021f57806355a31dd8146102585780635aa6e675146102605780638225458d146102685780638988d54f1461028e5780639137c1a714610296578063975057e7146102bc5780639b4f2278146102c4578063a52cd773146102ea578063ab6e623a14610324578063be68c3491461034a578063cabbd36414610370578063d47e25db14610396578063ddebf7951461039e578063deed7a5b146103c4578063e6f61472146103e1578063e9b0e2f714610407575b600080fd5b6101326004803603602081101561012257600080fd5b50356001600160a01b031661040f565b005b6101326004803603602081101561014a57600080fd5b50356001600160a01b031661059d565b6101806004803603602081101561017057600080fd5b50356001600160a01b03166106b7565b60408051918252519081900360200190f35b6101b8600480360360208110156101a857600080fd5b50356001600160a01b03166107a9565b6040518083600260200280838360005b838110156101e05781810151838201526020016101c8565b5050505090500182600260200280838360005b8381101561020b5781810151838201526020016101f3565b505050509050019250505060405180910390f35b61023c6004803603602081101561023557600080fd5b5035610b8a565b604080516001600160a01b039092168252519081900360200190f35b61023c610bb1565b61023c610bc0565b6101326004803603602081101561027e57600080fd5b50356001600160a01b0316610c40565b610180610e7d565b610132600480360360208110156102ac57600080fd5b50356001600160a01b0316610e83565b61023c610fb9565b610132600480360360208110156102da57600080fd5b50356001600160a01b0316610fc8565b6103106004803603602081101561030057600080fd5b50356001600160a01b03166111a8565b604080519115158252519081900360200190f35b6101326004803603602081101561033a57600080fd5b50356001600160a01b03166111fd565b6101326004803603602081101561036057600080fd5b50356001600160a01b031661144d565b6101326004803603602081101561038657600080fd5b50356001600160a01b0316611567565b61023c6116ce565b610180600480360360208110156103b457600080fd5b50356001600160a01b03166116dd565b61023c600480360360208110156103da57600080fd5b503561180b565b610310600480360360208110156103f757600080fd5b50356001600160a01b0316611818565b61023c611864565b600054604080516337b87c3960e21b815233600482015290516001600160a01b039092169163dee1f0e491602480820192602092909190829003018186803b15801561045a57600080fd5b505afa15801561046e573d6000803e3d6000fd5b505050506040513d602081101561048457600080fd5b50516104c8576040805162461bcd60e51b815260206004820152600e60248201526d4e6f7420676f7665726e616e636560901b604482015290519081900360640190fd5b6104d181611818565b15610519576040805162461bcd60e51b815260206004820152601360248201527220b63932b0b23c90309035b2bc903a37b5b2b760691b604482015290519081900360640190fd5b600680546001810182556000919091527ff652222313e28459528d920b65115c16c04f3efc82aaedc97be59f3f377c0d3f0180546001600160a01b0383166001600160a01b0319909116811790915560408051918252517f0a56c88bece4295107fd874c5ddacbb849aebef9d72fc42d81dd2b5caeaec1c69181900360200190a150565b600054604080516337b87c3960e21b815233600482015290516001600160a01b039092169163dee1f0e491602480820192602092909190829003018186803b1580156105e857600080fd5b505afa1580156105fc573d6000803e3d6000fd5b505050506040513d602081101561061257600080fd5b5051610656576040805162461bcd60e51b815260206004820152600e60248201526d4e6f7420676f7665726e616e636560901b604482015290519081900360640190fd5b600180546001600160a01b038381166001600160a01b0319808416821794859055600480549091169483169490941790935560408051938452911660208301819052815190926000805160206120e283398151915292908290030190a15050565b6008546000906001600160a01b03838116911614156106dc5750600354600a0a6107a4565b60006106e783611873565b90506000806000808415610793576106fd6120c3565b6107056120c3565b61070e896107a9565b6000945090925090505b60028310156107845761073a82846002811061073057fe5b60200201516116dd565b9550856107525750600096506107a495505050505050565b600354600a0a81846002811061076457fe5b602002015187028161077257fe5b04945092840192600190920191610718565b839750505050505050506107a4565b61079c876116dd565b955050505050505b919050565b6107b16120c3565b6107b96120c3565b826107c26120c3565b6107ca6120c3565b826001600160a01b0316630dfe16816040518163ffffffff1660e01b815260040160206040518083038186803b15801561080357600080fd5b505afa158015610817573d6000803e3d6000fd5b505050506040513d602081101561082d57600080fd5b50516001600160a01b0390811683526040805163d21220a760e01b815290519185169163d21220a791600480820192602092909190829003018186803b15801561087657600080fd5b505afa15801561088a573d6000803e3d6000fd5b505050506040513d60208110156108a057600080fd5b50518260016001600160a01b0390921660209290920201526000828160200201516001600160a01b031663313ce5676040518163ffffffff1660e01b815260040160206040518083038186803b1580156108f957600080fd5b505afa15801561090d573d6000803e3d6000fd5b505050506040513d602081101561092357600080fd5b505160ff169050600083600160200201516001600160a01b031663313ce5676040518163ffffffff1660e01b815260040160206040518083038186803b15801561096c57600080fd5b505afa158015610980573d6000803e3d6000fd5b505050506040513d602081101561099657600080fd5b50516040805163313ce56760e01b8152905160ff90921692506000916001600160a01b038b169163313ce567916004808301926020929190829003018186803b1580156109e257600080fd5b505afa1580156109f6573d6000803e3d6000fd5b505050506040513d6020811015610a0c57600080fd5b505160408051630240bc6b60e21b8152905160ff909216925060009182916001600160a01b038a1691630902f1ac91600480820192606092909190829003018186803b158015610a5b57600080fd5b505afa158015610a6f573d6000803e3d6000fd5b505050506040513d6060811015610a8557600080fd5b508051602091820151604080516318160ddd60e01b815290516001600160701b0393841696509290911693506000926001600160a01b038c16926318160ddd926004808201939291829003018186803b158015610ae157600080fd5b505afa158015610af5573d6000803e3d6000fd5b505050506040513d6020811015610b0b57600080fd5b50519050821580610b1a575081155b80610b23575080155b15610b455750506000808652602086015250939650919450610b859350505050565b8060035487860301600a0a840281610b5957fe5b048752600354819086860301600a0a830281610b7157fe5b046020880152509598509396505050505050505b915091565b60068181548110610b9757fe5b6000918252602090912001546001600160a01b0316905081565b6002546001600160a01b031681565b60008060009054906101000a90046001600160a01b03166001600160a01b0316635aa6e6756040518163ffffffff1660e01b815260040160206040518083038186803b158015610c0f57600080fd5b505afa158015610c23573d6000803e3d6000fd5b505050506040513d6020811015610c3957600080fd5b5051905090565b600054604080516337b87c3960e21b815233600482015290516001600160a01b039092169163dee1f0e491602480820192602092909190829003018186803b158015610c8b57600080fd5b505afa158015610c9f573d6000803e3d6000fd5b505050506040513d6020811015610cb557600080fd5b5051610cf9576040805162461bcd60e51b815260206004820152600e60248201526d4e6f7420676f7665726e616e636560901b604482015290519081900360640190fd5b80610d03816111a8565b610d4a576040805162461bcd60e51b81526020600482015260136024820152722737ba103090283934b1b4b733902a37b5b2b760691b604482015290519081900360640190fd5b60005b600754811015610d905760078181548110610d6457fe5b6000918252602090912001546001600160a01b0384811691161415610d8857610d90565b600101610d4d565b60075460001901811015610e055760078160010181548110610dae57fe5b600091825260209091200154600780546001600160a01b039092169183908110610dd457fe5b600091825260209091200180546001600160a01b0319166001600160a01b0392909216919091179055600101610d90565b6007805480610e1057fe5b6001900381819060005260206000200160006101000a8154906001600160a01b03021916905590557f267d2347865e6ed4881b044841cfb54745c81ca42c65b9c38e5f24391813642b8360405180826001600160a01b0316815260200191505060405180910390a1505050565b60035481565b600054604080516337b87c3960e21b815233600482015290516001600160a01b039092169163dee1f0e491602480820192602092909190829003018186803b158015610ece57600080fd5b505afa158015610ee2573d6000803e3d6000fd5b505050506040513d6020811015610ef857600080fd5b5051610f3c576040805162461bcd60e51b815260206004820152600e60248201526d4e6f7420676f7665726e616e636560901b604482015290519081900360640190fd5b6001600160a01b038116610f97576040805162461bcd60e51b815260206004820152601e60248201527f6e65772073746f726167652073686f756c646e277420626520656d7074790000604482015290519081900360640190fd5b600080546001600160a01b0319166001600160a01b0392909216919091179055565b6000546001600160a01b031681565b600054604080516337b87c3960e21b815233600482015290516001600160a01b039092169163dee1f0e491602480820192602092909190829003018186803b15801561101357600080fd5b505afa158015611027573d6000803e3d6000fd5b505050506040513d602081101561103d57600080fd5b5051611081576040805162461bcd60e51b815260206004820152600e60248201526d4e6f7420676f7665726e616e636560901b604482015290519081900360640190fd5b8061108b81611818565b6110ce576040805162461bcd60e51b815260206004820152600f60248201526e2737ba10309025b2bc902a37b5b2b760891b604482015290519081900360640190fd5b6110d7826111a8565b15611123576040805162461bcd60e51b815260206004820152601760248201527620b63932b0b23c903090383934b1b4b733903a37b5b2b760491b604482015290519081900360640190fd5b600780546001810182556000919091527fa66cc928b5edb82af9bd49922954155ab7b0942694bea4ce44661d9a8736c6880180546001600160a01b0384166001600160a01b0319909116811790915560408051918252517fa2411adfb9f4f19415027646ef07d6436cb8911befcf9d7540902498597158b49181900360200190a15050565b6000805b6007548110156111f457600781815481106111c357fe5b6000918252602090912001546001600160a01b03848116911614156111ec5760019150506107a4565b6001016111ac565b50600092915050565b600054604080516337b87c3960e21b815233600482015290516001600160a01b039092169163dee1f0e491602480820192602092909190829003018186803b15801561124857600080fd5b505afa15801561125c573d6000803e3d6000fd5b505050506040513d602081101561127257600080fd5b50516112b6576040805162461bcd60e51b815260206004820152600e60248201526d4e6f7420676f7665726e616e636560901b604482015290519081900360640190fd5b806112c081611818565b611303576040805162461bcd60e51b815260206004820152600f60248201526e2737ba10309025b2bc902a37b5b2b760891b604482015290519081900360640190fd5b60005b600654811015611349576006818154811061131d57fe5b6000918252602090912001546001600160a01b038481169116141561134157611349565b600101611306565b600654600019018110156113be576006816001018154811061136757fe5b600091825260209091200154600680546001600160a01b03909216918390811061138d57fe5b600091825260209091200180546001600160a01b0319166001600160a01b0392909216919091179055600101611349565b60068054806113c957fe5b6001900381819060005260206000200160006101000a8154906001600160a01b03021916905590557fb96050be102aa5c8996d5413c2c6a643eda5e34df5f00774e64542ac53d95c7c8360405180826001600160a01b0316815260200191505060405180910390a161143a836111a8565b156114485761144883610c40565b505050565b600054604080516337b87c3960e21b815233600482015290516001600160a01b039092169163dee1f0e491602480820192602092909190829003018186803b15801561149857600080fd5b505afa1580156114ac573d6000803e3d6000fd5b505050506040513d60208110156114c257600080fd5b5051611506576040805162461bcd60e51b815260206004820152600e60248201526d4e6f7420676f7665726e616e636560901b604482015290519081900360640190fd5b600280546001600160a01b038381166001600160a01b0319808416821794859055600580549091169483169490941790935560408051938452911660208301819052815190926000805160206120e283398151915292908290030190a15050565b600054604080516337b87c3960e21b815233600482015290516001600160a01b039092169163dee1f0e491602480820192602092909190829003018186803b1580156115b257600080fd5b505afa1580156115c6573d6000803e3d6000fd5b505050506040513d60208110156115dc57600080fd5b5051611620576040805162461bcd60e51b815260206004820152600e60248201526d4e6f7420676f7665726e616e636560901b604482015290519081900360640190fd5b8061162a81611818565b61166d576040805162461bcd60e51b815260206004820152600f60248201526e2737ba10309025b2bc902a37b5b2b760891b604482015290519081900360640190fd5b600880546001600160a01b038481166001600160a01b03198316811790935560408051938452911660208301819052815190927f0d72f09a133ec2549b665f4e98744e4e4be092ded65ebf4860c7d390890c5d3192908290030190a1505050565b6008546001600160a01b031681565b60085460009081906001600160a01b03848116911614156117045750600354600a0a611805565b6001600160a01b03831661171a57506000611805565b60008061178185600680548060200260200160405190810160405280929190818152602001828054801561177757602002820191906000526020600020905b81546001600160a01b03168152600190910190602001808311611759575b50505050506118b3565b90925090506000806001600160a01b0384166117a05760009450611800565b82156117d5576117b08785611aaa565b91506117bb84611d6c565b9050600354600a0a818302816117cd57fe5b049450611800565b6117df8785611eaf565b91506117ea84611d6c565b9050600354600a0a818302816117fc57fe5b0494505b505050505b92915050565b60078181548110610b9757fe5b6000805b6006548110156111f4576006818154811061183357fe5b6000918252602090912001546001600160a01b038481169116141561185c5760019150506107a4565b60010161181c565b6001546001600160a01b031681565b600154600090829061188f9082906001600160a01b0316611f06565b806118ac57506002546118ac9082906001600160a01b0316611f06565b9392505050565b600080808080808080805b8951841015611a99576004548a516000916001600160a01b03169063e6a43905908e908e90899081106118ed57fe5b60200260200101516040518363ffffffff1660e01b815260040180836001600160a01b03168152602001826001600160a01b031681526020019250505060206040518083038186803b15801561194257600080fd5b505afa158015611956573d6000803e3d6000fd5b505050506040513d602081101561196c57600080fd5b50516005548c519192506000916001600160a01b039091169063e6a43905908f908f908a90811061199957fe5b60200260200101516040518363ffffffff1660e01b815260040180836001600160a01b03168152602001826001600160a01b031681526020019250505060206040518083038186803b1580156119ee57600080fd5b505afa158015611a02573d6000803e3d6000fd5b505050506040513d6020811015611a1857600080fd5b505190506001600160a01b03821615611a3857611a35828e611fa3565b94505b6001600160a01b03811615611a5457611a51818e611fa3565b93505b83851180611a625784611a64565b855b975089881115611a8b578799508c8781518110611a7d57fe5b602002602001015198508093505b5050600190940193506118be565b949a94995093975050505050505050565b600480546040805163e6a4390560e01b81526001600160a01b0386811694820194909452848416602482015290516000938493169163e6a43905916044808301926020929190829003018186803b158015611b0457600080fd5b505afa158015611b18573d6000803e3d6000fd5b505050506040513d6020811015611b2e57600080fd5b505160408051630240bc6b60e21b81529051919250829160009182916001600160a01b03851691630902f1ac916004808301926060929190829003018186803b158015611b7a57600080fd5b505afa158015611b8e573d6000803e3d6000fd5b505050506040513d6060811015611ba457600080fd5b5080516020918201516040805163313ce56760e01b815290516001600160701b0393841696509290911693506000926001600160a01b038b169263313ce567926004808201939291829003018186803b158015611c0057600080fd5b505afa158015611c14573d6000803e3d6000fd5b505050506040513d6020811015611c2a57600080fd5b50516040805163313ce56760e01b8152905160ff90921692506000916001600160a01b038a169163313ce567916004808301926020929190829003018186803b158015611c7657600080fd5b505afa158015611c8a573d6000803e3d6000fd5b505050506040513d6020811015611ca057600080fd5b505160408051630dfe168160e01b8152905160ff90921692506000916001600160a01b03881691630dfe1681916004808301926020929190829003018186803b158015611cec57600080fd5b505afa158015611d00573d6000803e3d6000fd5b505050506040513d6020811015611d1657600080fd5b50516001600160a01b038b811691161415611d47578460035483850301600a0a850281611d3f57fe5b049050611d5f565b8360035483850301600a0a860281611d5b57fe5b0490505b9998505050505050505050565b600080611d78836111a8565b60085490915060009081906001600160a01b0386811691161415611da357600354600a0a9150611ea7565b8215611dc757600854611dc09086906001600160a01b0316611eaf565b9150611ea7565b6000806000611e2e886007805480602002602001604051908101604052809291908181526020018280548015611777576020028201919060005260206000209081546001600160a01b031681526001909101906020018083116117595750505050506118b3565b915091508015611e4957611e428883611aaa565b9350611e56565b611e538883611eaf565b93505b6008546001600160a01b03838116911614611e8757600854611e829083906001600160a01b0316611eaf565b611e8e565b600354600a0a5b9250600354600a0a83850281611ea057fe5b0494505050505b509392505050565b6005546040805163e6a4390560e01b81526001600160a01b038581166004830152848116602483015291516000938493169163e6a43905916044808301926020929190829003018186803b158015611b0457600080fd5b600080836001600160a01b031663c45a0155610bb86040518263ffffffff1660e01b815260040160206040518083038187803b158015611f4557600080fd5b5086fa93505050508015611f6b57506040513d6020811015611f6657600080fd5b505160015b611f77575060006118ac565b836001600160a01b0316816001600160a01b031614611f97576000611f9a565b60015b95945050505050565b6000808390506000816001600160a01b0316630dfe16816040518163ffffffff1660e01b815260040160206040518083038186803b158015611fe457600080fd5b505afa158015611ff8573d6000803e3d6000fd5b505050506040513d602081101561200e57600080fd5b505160408051630240bc6b60e21b8152905191925060009182916001600160a01b03861691630902f1ac91600480820192606092909190829003018186803b15801561205957600080fd5b505afa15801561206d573d6000803e3d6000fd5b505050506040513d606081101561208357600080fd5b508051602090910151909250905060006001600160a01b03878116908516146120ac57816120ae565b825b6001600160701b031698975050505050505050565b6040518060400160405280600290602082028036833750919291505056fef36cf3b7f3187ed5217f19ea5137ed68a98983b4d678c78eb886fc378d2c13cfa2646970667358221220d31541cb209a33838bddc5456d39066a3b40547acaf7c4c8ff6cc0bd069f2a8764736f6c634300060c0033",
  "devdoc": {
    "kind": "dev",
    "methods": {},
    "version": 1
  },
  "userdoc": {
    "kind": "user",
    "methods": {},
    "version": 1
  },
  "storageLayout": {
    "storage": [
      {
        "astId": 4786,
        "contract": "contracts/OracleMatic.sol:OracleMatic",
        "label": "store",
        "offset": 0,
        "slot": "0",
        "type": "t_contract(Storage)13147"
      },
      {
        "astId": 9857,
        "contract": "contracts/OracleMatic.sol:OracleMatic",
        "label": "quickswapFactoryAddress",
        "offset": 0,
        "slot": "1",
        "type": "t_address"
      },
      {
        "astId": 9860,
        "contract": "contracts/OracleMatic.sol:OracleMatic",
        "label": "sushiswapFactoryAddress",
        "offset": 0,
        "slot": "2",
        "type": "t_address"
      },
      {
        "astId": 9863,
        "contract": "contracts/OracleMatic.sol:OracleMatic",
        "label": "precisionDecimals",
        "offset": 0,
        "slot": "3",
        "type": "t_uint256"
      },
      {
        "astId": 9868,
        "contract": "contracts/OracleMatic.sol:OracleMatic",
        "label": "quickswapFactory",
        "offset": 0,
        "slot": "4",
        "type": "t_contract(IUniswapV2Factory)13804"
      },
      {
        "astId": 9873,
        "contract": "contracts/OracleMatic.sol:OracleMatic",
        "label": "sushiswapFactory",
        "offset": 0,
        "slot": "5",
        "type": "t_contract(IUniswapV2Factory)13804"
      },
      {
        "astId": 9883,
        "contract": "contracts/OracleMatic.sol:OracleMatic",
        "label": "keyTokens",
        "offset": 0,
        "slot": "6",
        "type": "t_array(t_address)dyn_storage"
      },
      {
        "astId": 9893,
        "contract": "contracts/OracleMatic.sol:OracleMatic",
        "label": "pricingTokens",
        "offset": 0,
        "slot": "7",
        "type": "t_array(t_address)dyn_storage"
      },
      {
        "astId": 9896,
        "contract": "contracts/OracleMatic.sol:OracleMatic",
        "label": "definedOutputToken",
        "offset": 0,
        "slot": "8",
        "type": "t_address"
      }
    ],
    "types": {
      "t_address": {
        "encoding": "inplace",
        "label": "address",
        "numberOfBytes": "20"
      },
      "t_array(t_address)dyn_storage": {
        "base": "t_address",
        "encoding": "dynamic_array",
        "label": "address[]",
        "numberOfBytes": "32"
      },
      "t_contract(IUniswapV2Factory)13804": {
        "encoding": "inplace",
        "label": "contract IUniswapV2Factory",
        "numberOfBytes": "20"
      },
      "t_contract(Storage)13147": {
        "encoding": "inplace",
        "label": "contract Storage",
        "numberOfBytes": "20"
      },
      "t_uint256": {
        "encoding": "inplace",
        "label": "uint256",
        "numberOfBytes": "32"
      }
    }
  }
}