{
  "address": "0xfB940096E2b310586a6C8074D8F30ddd38B0049F",
  "abi": [
    {
      "inputs": [
        {
          "internalType": "address[]",
          "name": "_keyTokens",
          "type": "address[]"
        },
        {
          "internalType": "address[]",
          "name": "_pricingTokens",
          "type": "address[]"
        },
        {
          "internalType": "address",
          "name": "_outputToken",
          "type": "address"
        }
      ],
      "stateMutability": "nonpayable",
      "type": "constructor"
    },
    {
      "anonymous": false,
      "inputs": [
        {
          "indexed": false,
          "internalType": "address",
          "name": "newOutputToken",
          "type": "address"
        },
        {
          "indexed": false,
          "internalType": "address",
          "name": "oldOutputToken",
          "type": "address"
        }
      ],
      "name": "DefinedOutputChanged",
      "type": "event"
    },
    {
      "anonymous": false,
      "inputs": [
        {
          "indexed": false,
          "internalType": "address",
          "name": "newKeyToken",
          "type": "address"
        }
      ],
      "name": "KeyTokenAdded",
      "type": "event"
    },
    {
      "anonymous": false,
      "inputs": [
        {
          "indexed": false,
          "internalType": "address",
          "name": "keyToken",
          "type": "address"
        }
      ],
      "name": "KeyTokenRemoved",
      "type": "event"
    },
    {
      "anonymous": false,
      "inputs": [
        {
          "indexed": false,
          "internalType": "address",
          "name": "newPricingToken",
          "type": "address"
        }
      ],
      "name": "PricingTokenAdded",
      "type": "event"
    },
    {
      "anonymous": false,
      "inputs": [
        {
          "indexed": false,
          "internalType": "address",
          "name": "pricingToken",
          "type": "address"
        }
      ],
      "name": "PricingTokenRemoved",
      "type": "event"
    },
    {
      "anonymous": false,
      "inputs": [
        {
          "indexed": false,
          "internalType": "address",
          "name": "newRegistry",
          "type": "address"
        },
        {
          "indexed": false,
          "internalType": "address",
          "name": "oldRegistry",
          "type": "address"
        }
      ],
      "name": "RegistryChanged",
      "type": "event"
    },
    {
      "anonymous": false,
      "inputs": [
        {
          "indexed": false,
          "internalType": "address",
          "name": "newSwap",
          "type": "address"
        }
      ],
      "name": "SwapAdded",
      "type": "event"
    },
    {
      "anonymous": false,
      "inputs": [
        {
          "indexed": false,
          "internalType": "address",
          "name": "newSwap",
          "type": "address"
        }
      ],
      "name": "SwapRemoved",
      "type": "event"
    },
    {
      "inputs": [],
      "name": "ONE",
      "outputs": [
        {
          "internalType": "uint256",
          "name": "",
          "type": "uint256"
        }
      ],
      "stateMutability": "view",
      "type": "function"
    },
    {
      "inputs": [],
      "name": "PRECISION_DECIMALS",
      "outputs": [
        {
          "internalType": "uint256",
          "name": "",
          "type": "uint256"
        }
      ],
      "stateMutability": "view",
      "type": "function"
    },
    {
      "inputs": [
        {
          "internalType": "address",
          "name": "newToken",
          "type": "address"
        }
      ],
      "name": "addKeyToken",
      "outputs": [],
      "stateMutability": "nonpayable",
      "type": "function"
    },
    {
      "inputs": [
        {
          "internalType": "address[]",
          "name": "newTokens",
          "type": "address[]"
        }
      ],
      "name": "addKeyTokens",
      "outputs": [],
      "stateMutability": "nonpayable",
      "type": "function"
    },
    {
      "inputs": [
        {
          "internalType": "address",
          "name": "newToken",
          "type": "address"
        }
      ],
      "name": "addPricingToken",
      "outputs": [],
      "stateMutability": "nonpayable",
      "type": "function"
    },
    {
      "inputs": [
        {
          "internalType": "address[]",
          "name": "newTokens",
          "type": "address[]"
        }
      ],
      "name": "addPricingTokens",
      "outputs": [],
      "stateMutability": "nonpayable",
      "type": "function"
    },
    {
      "inputs": [
        {
          "internalType": "address",
          "name": "newSwap",
          "type": "address"
        }
      ],
      "name": "addSwap",
      "outputs": [],
      "stateMutability": "nonpayable",
      "type": "function"
    },
    {
      "inputs": [
        {
          "internalType": "address[]",
          "name": "newSwaps",
          "type": "address[]"
        }
      ],
      "name": "addSwaps",
      "outputs": [],
      "stateMutability": "nonpayable",
      "type": "function"
    },
    {
      "inputs": [
        {
          "internalType": "address",
          "name": "newOutputToken",
          "type": "address"
        }
      ],
      "name": "changeDefinedOutput",
      "outputs": [],
      "stateMutability": "nonpayable",
      "type": "function"
    },
    {
      "inputs": [
        {
          "internalType": "address",
          "name": "token",
          "type": "address"
        }
      ],
      "name": "checkKeyToken",
      "outputs": [
        {
          "internalType": "bool",
          "name": "",
          "type": "bool"
        }
      ],
      "stateMutability": "view",
      "type": "function"
    },
    {
      "inputs": [
        {
          "internalType": "address",
          "name": "token",
          "type": "address"
        }
      ],
      "name": "checkPricingToken",
      "outputs": [
        {
          "internalType": "bool",
          "name": "",
          "type": "bool"
        }
      ],
      "stateMutability": "view",
      "type": "function"
    },
    {
      "inputs": [
        {
          "internalType": "address",
          "name": "swap",
          "type": "address"
        }
      ],
      "name": "checkSwap",
      "outputs": [
        {
          "internalType": "bool",
          "name": "",
          "type": "bool"
        }
      ],
      "stateMutability": "view",
      "type": "function"
    },
    {
      "inputs": [
        {
          "internalType": "address",
          "name": "token",
          "type": "address"
        }
      ],
      "name": "computePrice",
      "outputs": [
        {
          "internalType": "uint256",
          "name": "",
          "type": "uint256"
        }
      ],
      "stateMutability": "view",
      "type": "function"
    },
    {
      "inputs": [],
      "name": "definedOutputToken",
      "outputs": [
        {
          "internalType": "address",
          "name": "value",
          "type": "address"
        }
      ],
      "stateMutability": "view",
      "type": "function"
    },
    {
      "inputs": [
        {
          "internalType": "address",
          "name": "token",
          "type": "address"
        },
        {
          "internalType": "address[]",
          "name": "keyTokenList",
          "type": "address[]"
        }
      ],
      "name": "getLargestPool",
      "outputs": [
        {
          "internalType": "address",
          "name": "",
          "type": "address"
        },
        {
          "internalType": "address",
          "name": "",
          "type": "address"
        },
        {
          "internalType": "address",
          "name": "",
          "type": "address"
        }
      ],
      "stateMutability": "view",
      "type": "function"
    },
    {
      "inputs": [
        {
          "internalType": "address",
          "name": "token",
          "type": "address"
        }
      ],
      "name": "getLargestPool",
      "outputs": [
        {
          "internalType": "address",
          "name": "",
          "type": "address"
        },
        {
          "internalType": "address",
          "name": "",
          "type": "address"
        },
        {
          "internalType": "address",
          "name": "",
          "type": "address"
        }
      ],
      "stateMutability": "view",
      "type": "function"
    },
    {
      "inputs": [
        {
          "internalType": "address",
          "name": "token",
          "type": "address"
        }
      ],
      "name": "getPrice",
      "outputs": [
        {
          "internalType": "uint256",
          "name": "",
          "type": "uint256"
        }
      ],
      "stateMutability": "view",
      "type": "function"
    },
    {
      "inputs": [
        {
          "internalType": "address",
          "name": "token",
          "type": "address"
        }
      ],
      "name": "getSwapForPool",
      "outputs": [
        {
          "internalType": "address",
          "name": "",
          "type": "address"
        }
      ],
      "stateMutability": "view",
      "type": "function"
    },
    {
      "inputs": [],
      "name": "governance",
      "outputs": [
        {
          "internalType": "address",
          "name": "",
          "type": "address"
        }
      ],
      "stateMutability": "view",
      "type": "function"
    },
    {
      "inputs": [
        {
          "internalType": "address[]",
          "name": "_keyTokens",
          "type": "address[]"
        },
        {
          "internalType": "address[]",
          "name": "_pricingTokens",
          "type": "address[]"
        },
        {
          "internalType": "address",
          "name": "_outputToken",
          "type": "address"
        }
      ],
      "name": "initialize",
      "outputs": [],
      "stateMutability": "nonpayable",
      "type": "function"
    },
    {
      "inputs": [
        {
          "internalType": "uint256",
          "name": "",
          "type": "uint256"
        }
      ],
      "name": "keyTokens",
      "outputs": [
        {
          "internalType": "address",
          "name": "",
          "type": "address"
        }
      ],
      "stateMutability": "view",
      "type": "function"
    },
    {
      "inputs": [
        {
          "internalType": "address",
          "name": "_inputToken",
          "type": "address"
        },
        {
          "internalType": "address",
          "name": "_replacementToken",
          "type": "address"
        }
      ],
      "name": "modifyReplacementTokens",
      "outputs": [],
      "stateMutability": "nonpayable",
      "type": "function"
    },
    {
      "inputs": [
        {
          "internalType": "uint256",
          "name": "",
          "type": "uint256"
        }
      ],
      "name": "pricingTokens",
      "outputs": [
        {
          "internalType": "address",
          "name": "",
          "type": "address"
        }
      ],
      "stateMutability": "view",
      "type": "function"
    },
    {
      "inputs": [
        {
          "internalType": "address",
          "name": "keyToken",
          "type": "address"
        }
      ],
      "name": "removeKeyToken",
      "outputs": [],
      "stateMutability": "nonpayable",
      "type": "function"
    },
    {
      "inputs": [
        {
          "internalType": "address",
          "name": "pricingToken",
          "type": "address"
        }
      ],
      "name": "removePricingToken",
      "outputs": [],
      "stateMutability": "nonpayable",
      "type": "function"
    },
    {
      "inputs": [
        {
          "internalType": "address",
          "name": "swap",
          "type": "address"
        }
      ],
      "name": "removeSwap",
      "outputs": [],
      "stateMutability": "nonpayable",
      "type": "function"
    },
    {
      "inputs": [
        {
          "internalType": "address",
          "name": "_governance",
          "type": "address"
        }
      ],
      "name": "setGovernance",
      "outputs": [],
      "stateMutability": "nonpayable",
      "type": "function"
    },
    {
      "inputs": [
        {
          "internalType": "address[]",
          "name": "newSwaps",
          "type": "address[]"
        }
      ],
      "name": "setSwaps",
      "outputs": [],
      "stateMutability": "nonpayable",
      "type": "function"
    },
    {
      "inputs": [
        {
          "internalType": "uint256",
          "name": "",
          "type": "uint256"
        }
      ],
      "name": "swaps",
      "outputs": [
        {
          "internalType": "address",
          "name": "",
          "type": "address"
        }
      ],
      "stateMutability": "view",
      "type": "function"
    }
  ],
  "transactionHash": "0x204e8602b197e9f5b4d63a049ef7841bcd56d4b029c10312a297073ed5be6379",
  "args": [
    [
      "0x8AC76a51cc950d9822D68b83fE1Ad97B32Cd580d",
      "0x2170Ed0880ac9A755fd29B2688956BD959F933F8",
      "0x1AF3F329e8BE154074D8769D1FFa4eE058B1DBc3",
      "0x55d398326f99059fF775485246999027B3197955",
      "0x23396cF899Ca06c4472205fC903bDB4de249D6fC",
      "0x7130d2A12B9BCbFAe4f2634d864A1Ee1Ce3Ead9c",
      "0xe9e7CEA3DedcA5984780Bafc599bD69ADd087D56",
      "0xbb4CdB9CBd36B01bD1cBaEBF2De08d9173bc095c",
      "0x4BD17003473389A42DAF6a0a729f6Fdb328BbBd7",
      "0x111111111117dC0aa78b770fA6A738034120C302"
    ],
    [
      "0xbb4CdB9CBd36B01bD1cBaEBF2De08d9173bc095c",
      "0xe9e7CEA3DedcA5984780Bafc599bD69ADd087D56",
      "0x23396cF899Ca06c4472205fC903bDB4de249D6fC",
      "0x55d398326f99059fF775485246999027B3197955",
      "0x8AC76a51cc950d9822D68b83fE1Ad97B32Cd580d",
      "0x4BD17003473389A42DAF6a0a729f6Fdb328BbBd7",
      "0x1AF3F329e8BE154074D8769D1FFa4eE058B1DBc3"
    ],
    "0xe9e7CEA3DedcA5984780Bafc599bD69ADd087D56"
  ],
  "solcInputHash": "86d506d2241e5c8b968af832cc4a1274",
  "bytecode": "0x60806040523480156200001157600080fd5b5060405162002dc138038062002dc1833981810160405260608110156200003757600080fd5b81019080805160405193929190846401000000008211156200005857600080fd5b9083019060208201858111156200006e57600080fd5b82518660208202830111640100000000821117156200008c57600080fd5b82525081516020918201928201910280838360005b83811015620000bb578181015183820152602001620000a1565b5050505090500160405260200180516040519392919084640100000000821115620000e557600080fd5b908301906020820185811115620000fb57600080fd5b82518660208202830111640100000000821117156200011957600080fd5b82525081516020918201928201910280838360005b83811015620001485781810151838201526020016200012e565b50505050919091016040525060200151915033905062000168816200017f565b50620001768383836200024e565b505050620009e7565b6000546001600160a01b03161580620001a257506000546001600160a01b031633145b620001e5576040805162461bcd60e51b815260206004820152600e60248201526d4e6f7420676f7665726e616e636560901b604482015290519081900360640190fd5b6001600160a01b0381166200022c5760405162461bcd60e51b815260040180806020018281038252602181526020018062002d526021913960400191505060405180910390fd5b600080546001600160a01b0319166001600160a01b0392909216919091179055565b600054600160a81b900460ff16806200026c57506200026c62000349565b80620002825750600054600160a01b900460ff16155b620002bf5760405162461bcd60e51b815260040180806020018281038252602e81526020018062002d93602e913960400191505060405180910390fd5b600054600160a81b900460ff16158015620002f7576000805460ff60a01b1960ff60a81b19909116600160a81b1716600160a01b1790555b6200030d336200017f60201b620015d41760201c565b620003188462000367565b620003238362000436565b6200032e8262000501565b801562000343576000805460ff60a81b191690555b50505050565b600062000361306200067060201b62001e111760201c565b15905090565b6000546001600160a01b031615806200038a57506000546001600160a01b031633145b620003cd576040805162461bcd60e51b815260206004820152600e60248201526d4e6f7420676f7665726e616e636560901b604482015290519081900360640190fd5b60005b81518110156200043257620003ff828281518110620003eb57fe5b60200260200101516200067660201b60201c565b6200042957620004298282815181106200041557fe5b60200260200101516200068b60201b60201c565b600101620003d0565b5050565b6000546001600160a01b031615806200045957506000546001600160a01b031633145b6200049c576040805162461bcd60e51b815260206004820152600e60248201526d4e6f7420676f7665726e616e636560901b604482015290519081900360640190fd5b60005b81518110156200043257620004ce828281518110620004ba57fe5b6020026020010151620007d260201b60201c565b620004f857620004f8828281518110620004e457fe5b6020026020010151620007e160201b60201c565b6001016200049f565b6000546001600160a01b031615806200052457506000546001600160a01b031633145b62000567576040805162461bcd60e51b815260206004820152600e60248201526d4e6f7420676f7665726e616e636560901b604482015290519081900360640190fd5b80620005738162000676565b620005b7576040805162461bcd60e51b815260206004820152600f60248201526e2737ba10309025b2bc902a37b5b2b760891b604482015290519081900360640190fd5b6001600160a01b03821662000602576040805162461bcd60e51b815260206004820152600c60248201526b7a65726f206164647265737360a01b604482015290519081900360640190fd5b60006200060e6200097a565b60008051602062002d73833981519152848155604080516001600160a01b03808816825284166020820152815193945091927f0d72f09a133ec2549b665f4e98744e4e4be092ded65ebf4860c7d390890c5d319281900390910190a150505050565b3b151590565b6000620006858260016200098e565b92915050565b6000546001600160a01b03161580620006ae57506000546001600160a01b031633145b620006f1576040805162461bcd60e51b815260206004820152600e60248201526d4e6f7420676f7665726e616e636560901b604482015290519081900360640190fd5b620006fc8162000676565b156200074f576040805162461bcd60e51b815260206004820152601360248201527f416c72656164792061206b657920746f6b656e00000000000000000000000000604482015290519081900360640190fd5b6001805480820182556000919091527fb10e2d527612073b26eecdfd717e6a320cf44b4afac2b0732d9fcbe2b7fa0cf60180546001600160a01b0383166001600160a01b0319909116811790915560408051918252517f0a56c88bece4295107fd874c5ddacbb849aebef9d72fc42d81dd2b5caeaec1c69181900360200190a150565b6000620006858260026200098e565b6000546001600160a01b031615806200080457506000546001600160a01b031633145b62000847576040805162461bcd60e51b815260206004820152600e60248201526d4e6f7420676f7665726e616e636560901b604482015290519081900360640190fd5b80620008538162000676565b62000897576040805162461bcd60e51b815260206004820152600f60248201526e2737ba10309025b2bc902a37b5b2b760891b604482015290519081900360640190fd5b620008a282620007d2565b15620008f5576040805162461bcd60e51b815260206004820152601760248201527f416c726561647920612070726963696e6720746f6b656e000000000000000000604482015290519081900360640190fd5b600280546001810182556000919091527f405787fa12a823e0f2b7631cc41b3ba8828b3321ca811111fa75cd3aa3bb5ace0180546001600160a01b0384166001600160a01b0319909116811790915560408051918252517fa2411adfb9f4f19415027646ef07d6436cb8911befcf9d7540902498597158b49181900360200190a15050565b60008051602062002d738339815191525490565b6000805b8254811015620009dd57828181548110620009a957fe5b6000918252602090912001546001600160a01b0385811691161415620009d457600191505062000685565b60010162000992565b5060009392505050565b61235b80620009f76000396000f3fe608060405234801561001057600080fd5b506004361061015f5760003560e01c8063156d2ab1146101645780631e5eef5b14610207578063225f879c1461023557806327ed15591461025b57806341976e09146102fc57806343ab662c1461033457806349a40e0f1461036e5780635274ac3f146103a75780635aa6e675146104d55780635e72f13a146104dd5780635eb55df8146105b957806360ebfee61461065a5780638225458d1461066257806392c36b17146106885780639b4f2278146106ae578063a52cd773146106d4578063ab033ea9146106fa578063ab6e623a14610720578063c2ee3a0814610746578063c95da6511461074e578063cabbd364146107ef578063d07a97d914610815578063d47e25db1461083b578063db5a065e14610843578063ddebf79514610869578063deed7a5b1461088f578063e3616394146108ac578063e6f61472146108d2578063f09c5829146108f8575b600080fd5b6102056004803603602081101561017a57600080fd5b810190602081018135600160201b81111561019457600080fd5b8201836020820111156101a657600080fd5b803590602001918460208302840111600160201b831117156101c757600080fd5b919080806020026020016040519081016040528093929190818152602001838360200280828437600092019190915250929550610915945050505050565b005b6102056004803603604081101561021d57600080fd5b506001600160a01b03813581169160200135166109cd565b6102056004803603602081101561024b57600080fd5b50356001600160a01b0316610a5f565b6102056004803603602081101561027157600080fd5b810190602081018135600160201b81111561028b57600080fd5b82018360208201111561029d57600080fd5b803590602001918460208302840111600160201b831117156102be57600080fd5b919080806020026020016040519081016040528093929190818152602001838360200280828437600092019190915250929550610b97945050505050565b6103226004803603602081101561031257600080fd5b50356001600160a01b0316610c4b565b60408051918252519081900360200190f35b61035a6004803603602081101561034a57600080fd5b50356001600160a01b0316610f4b565b604080519115158252519081900360200190f35b61038b6004803603602081101561038457600080fd5b5035610f5e565b604080516001600160a01b039092168252519081900360200190f35b610205600480360360608110156103bd57600080fd5b810190602081018135600160201b8111156103d757600080fd5b8201836020820111156103e957600080fd5b803590602001918460208302840111600160201b8311171561040a57600080fd5b9190808060200260200160405190810160405280939291908181526020018383602002808284376000920191909152509295949360208101935035915050600160201b81111561045957600080fd5b82018360208201111561046b57600080fd5b803590602001918460208302840111600160201b8311171561048c57600080fd5b919080806020026020016040519081016040528093929190818152602001838360200280828437600092019190915250929550505090356001600160a01b03169150610f859050565b61038b611065565b61058e600480360360408110156104f357600080fd5b6001600160a01b038235169190810190604081016020820135600160201b81111561051d57600080fd5b82018360208201111561052f57600080fd5b803590602001918460208302840111600160201b8311171561055057600080fd5b919080806020026020016040519081016040528093929190818152602001838360200280828437600092019190915250929550611074945050505050565b604080516001600160a01b039485168152928416602084015292168183015290519081900360600190f35b610205600480360360208110156105cf57600080fd5b810190602081018135600160201b8111156105e957600080fd5b8201836020820111156105fb57600080fd5b803590602001918460208302840111600160201b8311171561061c57600080fd5b9190808060200260200160405190810160405280939291908181526020018383602002808284376000920191909152509295506111c4945050505050565b610322611240565b6102056004803603602081101561067857600080fd5b50356001600160a01b0316611245565b6102056004803603602081101561069e57600080fd5b50356001600160a01b0316611345565b610205600480360360208110156106c457600080fd5b50356001600160a01b031661143c565b61035a600480360360208110156106ea57600080fd5b50356001600160a01b03166115c7565b6102056004803603602081101561071057600080fd5b50356001600160a01b03166115d4565b6102056004803603602081101561073657600080fd5b50356001600160a01b031661169f565b6103226117ae565b6102056004803603602081101561076457600080fd5b810190602081018135600160201b81111561077e57600080fd5b82018360208201111561079057600080fd5b803590602001918460208302840111600160201b831117156107b157600080fd5b9190808060200260200160405190810160405280939291908181526020018383602002808284376000920191909152509295506117ba945050505050565b6102056004803603602081101561080557600080fd5b50356001600160a01b031661186e565b6102056004803603602081101561082b57600080fd5b50356001600160a01b03166119d4565b61038b611b07565b61038b6004803603602081101561085957600080fd5b50356001600160a01b0316611b1a565b6103226004803603602081101561087f57600080fd5b50356001600160a01b0316611bf5565b61038b600480360360208110156108a557600080fd5b5035611d76565b61058e600480360360208110156108c257600080fd5b50356001600160a01b0316611d83565b61035a600480360360208110156108e857600080fd5b50356001600160a01b0316611df7565b61038b6004803603602081101561090e57600080fd5b5035611e04565b6000546001600160a01b0316158061093757506000546001600160a01b031633145b610979576040805162461bcd60e51b815260206004820152600e60248201526d4e6f7420676f7665726e616e636560901b604482015290519081900360640190fd5b60005b81518110156109c9576109a182828151811061099457fe5b6020026020010151610f4b565b6109c1576109c18282815181106109b457fe5b60200260200101516119d4565b60010161097c565b5050565b6000546001600160a01b031615806109ef57506000546001600160a01b031633145b610a31576040805162461bcd60e51b815260206004820152600e60248201526d4e6f7420676f7665726e616e636560901b604482015290519081900360640190fd5b6001600160a01b03918216600090815260036020526040902080546001600160a01b03191691909216179055565b6000546001600160a01b03161580610a8157506000546001600160a01b031633145b610ac3576040805162461bcd60e51b815260206004820152600e60248201526d4e6f7420676f7665726e616e636560901b604482015290519081900360640190fd5b610acc81611df7565b15610b14576040805162461bcd60e51b815260206004820152601360248201527220b63932b0b23c90309035b2bc903a37b5b2b760691b604482015290519081900360640190fd5b6001805480820182556000919091527fb10e2d527612073b26eecdfd717e6a320cf44b4afac2b0732d9fcbe2b7fa0cf60180546001600160a01b0383166001600160a01b0319909116811790915560408051918252517f0a56c88bece4295107fd874c5ddacbb849aebef9d72fc42d81dd2b5caeaec1c69181900360200190a150565b6000546001600160a01b03161580610bb957506000546001600160a01b031633145b610bfb576040805162461bcd60e51b815260206004820152600e60248201526d4e6f7420676f7665726e616e636560901b604482015290519081900360640190fd5b60005b81518110156109c957610c23828281518110610c1657fe5b60200260200101516115c7565b610c4357610c43828281518110610c3657fe5b602002602001015161143c565b600101610bfe565b6000610c55611b07565b6001600160a01b0316826001600160a01b03161415610c7d5750670de0b6b3a7640000610f46565b6001600160a01b038281166000908152600360205260409020541615610cbc576001600160a01b03918216600090815260036020526040902054909116905b60008060008080610ccc87611b1a565b90506001600160a01b03811615610f3557606080826001600160a01b0316634e89a7118a6040518263ffffffff1660e01b815260040180826001600160a01b0316815260200191505060006040518083038186803b158015610d2d57600080fd5b505afa158015610d41573d6000803e3d6000fd5b505050506040513d6000823e601f3d908101601f191682016040908152811015610d6a57600080fd5b8101908080516040519392919084600160201b821115610d8957600080fd5b908301906020820185811115610d9e57600080fd5b82518660208202830111600160201b82111715610dba57600080fd5b82525081516020918201928201910280838360005b83811015610de7578181015183820152602001610dcf565b5050505090500160405260200180516040519392919084600160201b821115610e0f57600080fd5b908301906020820185811115610e2457600080fd5b82518660208202830111600160201b82111715610e4057600080fd5b82525081516020918201928201910280838360005b83811015610e6d578181015183820152602001610e55565b5050505090500160405250505091509150600093505b8151841015610f265760006001600160a01b0316828581518110610ea357fe5b60200260200101516001600160a01b03161415610ebf57610f26565b610edb828581518110610ece57fe5b6020026020010151611bf5565b965086610ef2576000975050505050505050610f46565b6012600a0a818581518110610f0357fe5b6020026020010151880281610f1457fe5b04955093850193600190930192610e83565b84975050505050505050610f46565b610f3e87611bf5565b955050505050505b919050565b6000610f58826004611e17565b92915050565b60018181548110610f6b57fe5b6000918252602090912001546001600160a01b0316905081565b600054600160a81b900460ff1680610fa05750610fa0611e6b565b80610fb55750600054600160a01b900460ff16155b610ff05760405162461bcd60e51b815260040180806020018281038252602e8152602001806122f8602e913960400191505060405180910390fd5b600054600160a81b900460ff16158015611027576000805460ff60a01b1960ff60a81b19909116600160a81b1716600160a01b1790555b611030336115d4565b611039846117ba565b61104283610b97565b61104b8261186e565b801561105f576000805460ff60a81b191690555b50505050565b6000546001600160a01b031681565b6000808080808080805b6004548110156111b45760006004828154811061109757fe5b9060005260206000200160009054906101000a90046001600160a01b031690506000806000836001600160a01b0316635e72f13a8f8f6040518363ffffffff1660e01b815260040180836001600160a01b0316815260200180602001828103825283818151815260200191508051906020019060200280838360005b8381101561112b578181015183820152602001611113565b50505050905001935050505060606040518083038186803b15801561114f57600080fd5b505afa158015611163573d6000803e3d6000fd5b505050506040513d606081101561117957600080fd5b50805160208201516040909201519094509092509050868111156111a4578395508298508197508096505b50506001909201915061107e9050565b5095509193509150509250925092565b6000546001600160a01b031615806111e657506000546001600160a01b031633145b611228576040805162461bcd60e51b815260206004820152600e60248201526d4e6f7420676f7665726e616e636560901b604482015290519081900360640190fd5b61123460046000612284565b61123d81610915565b50565b601281565b6000546001600160a01b0316158061126757506000546001600160a01b031633145b6112a9576040805162461bcd60e51b815260206004820152600e60248201526d4e6f7420676f7665726e616e636560901b604482015290519081900360640190fd5b806112b3816115c7565b6112fa576040805162461bcd60e51b81526020600482015260136024820152722737ba103090283934b1b4b733902a37b5b2b760691b604482015290519081900360640190fd5b611305826002611e7c565b604080516001600160a01b038416815290517f267d2347865e6ed4881b044841cfb54745c81ca42c65b9c38e5f24391813642b9181900360200190a15050565b6000546001600160a01b0316158061136757506000546001600160a01b031633145b6113a9576040805162461bcd60e51b815260206004820152600e60248201526d4e6f7420676f7665726e616e636560901b604482015290519081900360640190fd5b806113b381610f4b565b6113f1576040805162461bcd60e51b815260206004820152600a60248201526904e6f74206120537761760b41b604482015290519081900360640190fd5b6113fc826004611e7c565b604080516001600160a01b038416815290517fa3520971018d9e61bd8c1e2210977e4a2791bda1c9803a2fbefdbc8abc88a8179181900360200190a15050565b6000546001600160a01b0316158061145e57506000546001600160a01b031633145b6114a0576040805162461bcd60e51b815260206004820152600e60248201526d4e6f7420676f7665726e616e636560901b604482015290519081900360640190fd5b806114aa81611df7565b6114ed576040805162461bcd60e51b815260206004820152600f60248201526e2737ba10309025b2bc902a37b5b2b760891b604482015290519081900360640190fd5b6114f6826115c7565b15611542576040805162461bcd60e51b815260206004820152601760248201527620b63932b0b23c903090383934b1b4b733903a37b5b2b760491b604482015290519081900360640190fd5b600280546001810182556000919091527f405787fa12a823e0f2b7631cc41b3ba8828b3321ca811111fa75cd3aa3bb5ace0180546001600160a01b0384166001600160a01b0319909116811790915560408051918252517fa2411adfb9f4f19415027646ef07d6436cb8911befcf9d7540902498597158b49181900360200190a15050565b6000610f58826002611e17565b6000546001600160a01b031615806115f657506000546001600160a01b031633145b611638576040805162461bcd60e51b815260206004820152600e60248201526d4e6f7420676f7665726e616e636560901b604482015290519081900360640190fd5b6001600160a01b03811661167d5760405162461bcd60e51b81526004018080602001828103825260218152602001806122b76021913960400191505060405180910390fd5b600080546001600160a01b0319166001600160a01b0392909216919091179055565b6000546001600160a01b031615806116c157506000546001600160a01b031633145b611703576040805162461bcd60e51b815260206004820152600e60248201526d4e6f7420676f7665726e616e636560901b604482015290519081900360640190fd5b8061170d81611df7565b611750576040805162461bcd60e51b815260206004820152600f60248201526e2737ba10309025b2bc902a37b5b2b760891b604482015290519081900360640190fd5b61175b826001611e7c565b604080516001600160a01b038416815290517fb96050be102aa5c8996d5413c2c6a643eda5e34df5f00774e64542ac53d95c7c9181900360200190a16117a0826115c7565b156109c9576109c982611245565b670de0b6b3a764000081565b6000546001600160a01b031615806117dc57506000546001600160a01b031633145b61181e576040805162461bcd60e51b815260206004820152600e60248201526d4e6f7420676f7665726e616e636560901b604482015290519081900360640190fd5b60005b81518110156109c95761184682828151811061183957fe5b6020026020010151611df7565b6118665761186682828151811061185957fe5b6020026020010151610a5f565b600101611821565b6000546001600160a01b0316158061189057506000546001600160a01b031633145b6118d2576040805162461bcd60e51b815260206004820152600e60248201526d4e6f7420676f7665726e616e636560901b604482015290519081900360640190fd5b806118dc81611df7565b61191f576040805162461bcd60e51b815260206004820152600f60248201526e2737ba10309025b2bc902a37b5b2b760891b604482015290519081900360640190fd5b6001600160a01b038216611969576040805162461bcd60e51b815260206004820152600c60248201526b7a65726f206164647265737360a01b604482015290519081900360640190fd5b6000611973611b07565b6000805160206122d8833981519152848155604080516001600160a01b03808816825284166020820152815193945091927f0d72f09a133ec2549b665f4e98744e4e4be092ded65ebf4860c7d390890c5d319281900390910190a150505050565b6000546001600160a01b031615806119f657506000546001600160a01b031633145b611a38576040805162461bcd60e51b815260206004820152600e60248201526d4e6f7420676f7665726e616e636560901b604482015290519081900360640190fd5b611a4181610f4b565b15611a84576040805162461bcd60e51b815260206004820152600e60248201526d0416c7265616479206120737761760941b604482015290519081900360640190fd5b600480546001810182556000919091527f8a35acfbc15ff81a39ae7d344fd709f28e8600b4aa8c65c6b64bfe7fe36bd19b0180546001600160a01b0383166001600160a01b0319909116811790915560408051918252517ee7bfbec0f3b965b4b802432f5e5dc9f17feced2ff163856ea5364cc0a156ad9181900360200190a150565b6000805160206122d88339815191525490565b6000805b600454811015611bec5760048181548110611b3557fe5b6000918252602091829020015460408051635b16ebb760e01b81526001600160a01b03878116600483015291519190921692635b16ebb79260248082019391829003018186803b158015611b8857600080fd5b505afa158015611b9c573d6000803e3d6000fd5b505050506040513d6020811015611bb257600080fd5b505115611be45760048181548110611bc657fe5b6000918252602090912001546001600160a01b03169150610f469050565b600101611b1e565b50600092915050565b600080611c00611b07565b6001600160a01b0316836001600160a01b03161415611c285750670de0b6b3a7640000610f58565b6001600160a01b038316611c3e57506000610f58565b6000806000611ca7866001805480602002602001604051908101604052809291908181526020018280548015611c9d57602002820191906000526020600020905b81546001600160a01b03168152600190910190602001808311611c7f575b5050505050611074565b919450925090506000806001600160a01b038416611cc85760009550611d6b565b60408051630376492360e01b81526001600160a01b038a8116600483015286811660248301528581166044830152915191871691630376492391606480820192602092909190829003018186803b158015611d2257600080fd5b505afa158015611d36573d6000803e3d6000fd5b505050506040513d6020811015611d4c57600080fd5b50519150611d5984611f68565b9050670de0b6b3a76400008282020495505b505050505092915050565b60028181548110610f6b57fe5b6000806000611dea846001805480602002602001604051908101604052809291908181526020018280548015611c9d576020028201919060005260206000209081546001600160a01b03168152600190910190602001808311611c7f575050505050611074565b9250925092509193909250565b6000610f58826001611e17565b60048181548110610f6b57fe5b3b151590565b6000805b8254811015611e6157828181548110611e3057fe5b6000918252602090912001546001600160a01b0385811691161415611e59576001915050610f58565b600101611e1b565b5060009392505050565b6000611e7630611e11565b15905090565b60005b8154811015611ec057818181548110611e9457fe5b6000918252602090912001546001600160a01b0384811691161415611eb857611ec0565b600101611e7f565b815460001901811015611f3757818160010181548110611edc57fe5b9060005260206000200160009054906101000a90046001600160a01b0316828281548110611f0657fe5b600091825260209091200180546001600160a01b0319166001600160a01b0392909216919091179055600101611ec0565b81805480611f4157fe5b600082815260209020810160001990810180546001600160a01b0319169055019055505050565b600080611f74836115c7565b9050600080611f81611b07565b6001600160a01b0316856001600160a01b03161415611faa57670de0b6b3a7640000915061227c565b8215612073576004600081548110611fbe57fe5b6000918252602090912001546001600160a01b0316630376492386611fe1611b07565b60006040518463ffffffff1660e01b815260040180846001600160a01b03168152602001836001600160a01b03168152602001826001600160a01b03168152602001935050505060206040518083038186803b15801561204057600080fd5b505afa158015612054573d6000803e3d6000fd5b505050506040513d602081101561206a57600080fd5b5051915061227c565b6000806000806120db896002805480602002602001604051908101604052809291908181526020018280548015611c9d576020028201919060005260206000209081546001600160a01b03168152600190910190602001808311611c7f575050505050611074565b925092509250826001600160a01b031663037649238a84846040518463ffffffff1660e01b815260040180846001600160a01b03168152602001836001600160a01b03168152602001826001600160a01b03168152602001935050505060206040518083038186803b15801561215057600080fd5b505afa158015612164573d6000803e3d6000fd5b505050506040513d602081101561217a57600080fd5b50519450612186611b07565b6001600160a01b0316826001600160a01b03161461225e5760046000815481106121ac57fe5b6000918252602090912001546001600160a01b03166303764923836121cf611b07565b846040518463ffffffff1660e01b815260040180846001600160a01b03168152602001836001600160a01b03168152602001826001600160a01b03168152602001935050505060206040518083038186803b15801561222d57600080fd5b505afa158015612241573d6000803e3d6000fd5b505050506040513d602081101561225757600080fd5b5051612268565b670de0b6b3a76400005b670de0b6b3a7640000908602049550505050505b509392505050565b508054600082559060005260206000209081019061123d91905b808211156122b2576000815560010161229e565b509056fe6e657720676f7665726e616e63652073686f756c646e277420626520656d7074791dbcb769c96120b1e406b332726074f3608e8f9cd2cb585eb1bd72dd4ec7d60a496e697469616c697a61626c653a20636f6e747261637420697320616c726561647920696e697469616c697a6564a26469706673582212204b2476400a422d80fac0800ecc38eb0c8b9ce8f501e0537aeece3ed1eab8a3fa64736f6c634300060c00336e657720676f7665726e616e63652073686f756c646e277420626520656d7074791dbcb769c96120b1e406b332726074f3608e8f9cd2cb585eb1bd72dd4ec7d60a496e697469616c697a61626c653a20636f6e747261637420697320616c726561647920696e697469616c697a6564",
  "devdoc": {
    "kind": "dev",
    "methods": {},
    "version": 1
  },
  "userdoc": {
    "kind": "user",
    "methods": {},
    "version": 1
  },
  "storageLayout": {
    "storage": [
      {
        "astId": 5669,
        "contract": "contracts/OracleBase.sol:OracleBase",
        "label": "governance",
        "offset": 0,
        "slot": "0",
        "type": "t_address"
      },
      {
        "astId": 361,
        "contract": "contracts/OracleBase.sol:OracleBase",
        "label": "_initialized",
        "offset": 20,
        "slot": "0",
        "type": "t_bool"
      },
      {
        "astId": 364,
        "contract": "contracts/OracleBase.sol:OracleBase",
        "label": "_initializing",
        "offset": 21,
        "slot": "0",
        "type": "t_bool"
      },
      {
        "astId": 8362,
        "contract": "contracts/OracleBase.sol:OracleBase",
        "label": "keyTokens",
        "offset": 0,
        "slot": "1",
        "type": "t_array(t_address)dyn_storage"
      },
      {
        "astId": 8365,
        "contract": "contracts/OracleBase.sol:OracleBase",
        "label": "pricingTokens",
        "offset": 0,
        "slot": "2",
        "type": "t_array(t_address)dyn_storage"
      },
      {
        "astId": 8369,
        "contract": "contracts/OracleBase.sol:OracleBase",
        "label": "replacementTokens",
        "offset": 0,
        "slot": "3",
        "type": "t_mapping(t_address,t_address)"
      },
      {
        "astId": 8372,
        "contract": "contracts/OracleBase.sol:OracleBase",
        "label": "swaps",
        "offset": 0,
        "slot": "4",
        "type": "t_array(t_address)dyn_storage"
      }
    ],
    "types": {
      "t_address": {
        "encoding": "inplace",
        "label": "address",
        "numberOfBytes": "20"
      },
      "t_array(t_address)dyn_storage": {
        "base": "t_address",
        "encoding": "dynamic_array",
        "label": "address[]",
        "numberOfBytes": "32"
      },
      "t_bool": {
        "encoding": "inplace",
        "label": "bool",
        "numberOfBytes": "1"
      },
      "t_mapping(t_address,t_address)": {
        "encoding": "mapping",
        "key": "t_address",
        "label": "mapping(address => address)",
        "numberOfBytes": "32",
        "value": "t_address"
      }
    }
  }
}