{
  "address": "0x200e4792FD41EC2C2F8d58890E01ae5Af939B3ac",
  "abi": [
    {
      "inputs": [
        {
          "internalType": "address",
          "name": "_factoryAddress",
          "type": "address"
        }
      ],
      "stateMutability": "nonpayable",
      "type": "constructor"
    },
    {
      "inputs": [],
      "name": "PRECISION_DECIMALS",
      "outputs": [
        {
          "internalType": "uint256",
          "name": "",
          "type": "uint256"
        }
      ],
      "stateMutability": "view",
      "type": "function"
    },
    {
      "inputs": [
        {
          "internalType": "address",
          "name": "token",
          "type": "address"
        },
        {
          "internalType": "address[]",
          "name": "tokenList",
          "type": "address[]"
        }
      ],
      "name": "getLargestPool",
      "outputs": [
        {
          "internalType": "address",
          "name": "",
          "type": "address"
        },
        {
          "internalType": "address",
          "name": "",
          "type": "address"
        },
        {
          "internalType": "uint256",
          "name": "",
          "type": "uint256"
        }
      ],
      "stateMutability": "view",
      "type": "function"
    },
    {
      "inputs": [
        {
          "internalType": "address",
          "name": "token0",
          "type": "address"
        },
        {
          "internalType": "address",
          "name": "token1",
          "type": "address"
        },
        {
          "internalType": "address",
          "name": "",
          "type": "address"
        }
      ],
      "name": "getPriceVsToken",
      "outputs": [
        {
          "internalType": "uint256",
          "name": "",
          "type": "uint256"
        }
      ],
      "stateMutability": "view",
      "type": "function"
    },
    {
      "inputs": [
        {
          "internalType": "address",
          "name": "token",
          "type": "address"
        }
      ],
      "name": "getUnderlying",
      "outputs": [
        {
          "internalType": "address[]",
          "name": "",
          "type": "address[]"
        },
        {
          "internalType": "uint256[]",
          "name": "",
          "type": "uint256[]"
        }
      ],
      "stateMutability": "view",
      "type": "function"
    },
    {
      "inputs": [
        {
          "internalType": "address",
          "name": "token",
          "type": "address"
        }
      ],
      "name": "isPool",
      "outputs": [
        {
          "internalType": "bool",
          "name": "",
          "type": "bool"
        }
      ],
      "stateMutability": "view",
      "type": "function"
    }
  ],
  "transactionHash": "0xb5434d22ce0405dce07e98bb468a4bffa58d23808ed0d6e8b1f9ecbc0003a299",
  "args": [
    "0xcA143Ce32Fe78f1f7019d7d551a6402fC5350c73"
  ],
  "solcInputHash": "86d506d2241e5c8b968af832cc4a1274",
  "bytecode": "0x608060405234801561001057600080fd5b50604051610e0f380380610e0f8339818101604052602081101561003357600080fd5b5051806001600160a01b038116610091576040805162461bcd60e51b815260206004820152601360248201527f466163746f7279206d7573742062652073657400000000000000000000000000604482015290519081900360640190fd5b600080546001600160a01b0319166001600160a01b0383161790556100b46100bb565b50506100df565b600054600180546001600160a01b0319166001600160a01b03909216919091179055565b610d21806100ee6000396000f3fe608060405234801561001057600080fd5b50600436106100575760003560e01c8063037649231461005c5780634e89a711146100a65780635b16ebb7146101655780635e72f13a1461019f57806360ebfee61461027a575b600080fd5b6100946004803603606081101561007257600080fd5b506001600160a01b038135811691602081013582169160409091013516610282565b60408051918252519081900360200190f35b6100cc600480360360208110156100bc57600080fd5b50356001600160a01b0316610540565b604051808060200180602001838103835285818151815260200191508051906020019060200280838360005b838110156101105781810151838201526020016100f8565b50505050905001838103825284818151815260200191508051906020019060200280838360005b8381101561014f578181015183820152602001610137565b5050505090500194505050505060405180910390f35b61018b6004803603602081101561017b57600080fd5b50356001600160a01b03166109f9565b604080519115158252519081900360200190f35b610250600480360360408110156101b557600080fd5b6001600160a01b038235169190810190604081016020820135600160201b8111156101df57600080fd5b8201836020820111156101f157600080fd5b803590602001918460208302840111600160201b8311171561021257600080fd5b919080806020026020016040519081016040528093929190818152602001838360200280828437600092019190915250929550610a1a945050505050565b604080516001600160a01b0394851681529290931660208301528183015290519081900360600190f35b610094610b36565b6001546040805163e6a4390560e01b81526001600160a01b038681166004830152858116602483015291516000938493169163e6a43905916044808301926020929190829003018186803b1580156102d957600080fd5b505afa1580156102ed573d6000803e3d6000fd5b505050506040513d602081101561030357600080fd5b505160408051630240bc6b60e21b81529051919250829160009182916001600160a01b03851691630902f1ac916004808301926060929190829003018186803b15801561034f57600080fd5b505afa158015610363573d6000803e3d6000fd5b505050506040513d606081101561037957600080fd5b5080516020918201516040805163313ce56760e01b815290516001600160701b0393841696509290911693506000926001600160a01b038c169263313ce567926004808201939291829003018186803b1580156103d557600080fd5b505afa1580156103e9573d6000803e3d6000fd5b505050506040513d60208110156103ff57600080fd5b50516040805163313ce56760e01b8152905160ff90921692506000916001600160a01b038b169163313ce567916004808301926020929190829003018186803b15801561044b57600080fd5b505afa15801561045f573d6000803e3d6000fd5b505050506040513d602081101561047557600080fd5b505160408051630dfe168160e01b8152905160ff90921692506000916001600160a01b03881691630dfe1681916004808301926020929190829003018186803b1580156104c157600080fd5b505afa1580156104d5573d6000803e3d6000fd5b505050506040513d60208110156104eb57600080fd5b50516001600160a01b038c81169116141561051b5784601283850301600a0a85028161051357fe5b049050610532565b83601283850301600a0a86028161052e57fe5b0490505b9a9950505050505050505050565b6040805160028082526060828101909352829184918291849181602001602082028036833750506040805160028082526060808301845294955090925090602083019080368337019050509050836001600160a01b0316630dfe16816040518163ffffffff1660e01b815260040160206040518083038186803b1580156105c657600080fd5b505afa1580156105da573d6000803e3d6000fd5b505050506040513d60208110156105f057600080fd5b5051825183906000906105ff57fe5b60200260200101906001600160a01b031690816001600160a01b031681525050836001600160a01b031663d21220a76040518163ffffffff1660e01b815260040160206040518083038186803b15801561065857600080fd5b505afa15801561066c573d6000803e3d6000fd5b505050506040513d602081101561068257600080fd5b505182518390600190811061069357fe5b60200260200101906001600160a01b031690816001600160a01b0316815250506000826000815181106106c257fe5b60200260200101516001600160a01b031663313ce5676040518163ffffffff1660e01b815260040160206040518083038186803b15801561070257600080fd5b505afa158015610716573d6000803e3d6000fd5b505050506040513d602081101561072c57600080fd5b5051835160ff90911691506000908490600190811061074757fe5b60200260200101516001600160a01b031663313ce5676040518163ffffffff1660e01b815260040160206040518083038186803b15801561078757600080fd5b505afa15801561079b573d6000803e3d6000fd5b505050506040513d60208110156107b157600080fd5b50516040805163313ce56760e01b8152905160ff90921692506000916001600160a01b038c169163313ce567916004808301926020929190829003018186803b1580156107fd57600080fd5b505afa158015610811573d6000803e3d6000fd5b505050506040513d602081101561082757600080fd5b505160408051630240bc6b60e21b8152905160ff909216925060009182916001600160a01b038b1691630902f1ac91600480820192606092909190829003018186803b15801561087657600080fd5b505afa15801561088a573d6000803e3d6000fd5b505050506040513d60608110156108a057600080fd5b508051602091820151604080516318160ddd60e01b815290516001600160701b0393841696509290911693506000926001600160a01b038c16926318160ddd926004808201939291829003018186803b1580156108fc57600080fd5b505afa158015610910573d6000803e3d6000fd5b505050506040513d602081101561092657600080fd5b50519050821580610935575081155b8061093e575080155b1561098c5760008760008151811061095257fe5b60200260200101818152505060008760018151811061096d57fe5b6020908102919091010152509599509397506109f49650505050505050565b80601287860301600a0a84028161099f57fe5b04876000815181106109ad57fe5b60200260200101818152505080601286860301600a0a8302816109cc57fe5b04876001815181106109da57fe5b602090810291909101015250959950939750505050505050505b915091565b600080548290610a139082906001600160a01b0316610b3b565b9392505050565b6000808080808080805b8851811015610b255760015489516000916001600160a01b03169063e6a43905908d908d9086908110610a5357fe5b60200260200101516040518363ffffffff1660e01b815260040180836001600160a01b03168152602001826001600160a01b031681526020019250505060206040518083038186803b158015610aa857600080fd5b505afa158015610abc573d6000803e3d6000fd5b505050506040513d6020811015610ad257600080fd5b505190506001600160a01b038116610aeb576000610af5565b610af5818c610bcb565b925085831115610b1c57898281518110610b0b57fe5b602002602001015194508093508295505b50600101610a24565b509195509350909150509250925092565b601281565b600080836001600160a01b031663c45a0155610bb86040518263ffffffff1660e01b815260040160206040518083038187803b158015610b7a57600080fd5b5086fa93505050508015610ba057506040513d6020811015610b9b57600080fd5b505160015b610bac57506000610a13565b836001600160a01b0316816001600160a01b0316149150509392505050565b6000808390506000816001600160a01b0316630dfe16816040518163ffffffff1660e01b815260040160206040518083038186803b158015610c0c57600080fd5b505afa158015610c20573d6000803e3d6000fd5b505050506040513d6020811015610c3657600080fd5b505160408051630240bc6b60e21b8152905191925060009182916001600160a01b03861691630902f1ac91600480820192606092909190829003018186803b158015610c8157600080fd5b505afa158015610c95573d6000803e3d6000fd5b505050506040513d6060811015610cab57600080fd5b508051602090910151909250905060006001600160a01b0387811690851614610cd45781610cd6565b825b6001600160701b03169897505050505050505056fea264697066735822122063016ffac00182e9ae63f079b7b69c6ab30aed36f09f30d33d4bceed6fc483f464736f6c634300060c0033",
  "devdoc": {
    "kind": "dev",
    "methods": {
      "getLargestPool(address,address[])": {
        "details": "Gives a pool with largest liquidity for a given token and a given tokenset (either keyTokens or pricingTokens)"
      },
      "getPriceVsToken(address,address,address)": {
        "details": "Generic function giving the price of a given token vs another given token"
      },
      "getUnderlying(address)": {
        "details": "Get underlying tokens and amounts"
      },
      "isPool(address)": {
        "details": "Check what token is pool of this Swap"
      }
    },
    "version": 1
  },
  "userdoc": {
    "kind": "user",
    "methods": {},
    "version": 1
  },
  "storageLayout": {
    "storage": [
      {
        "astId": 16132,
        "contract": "contracts/PancakeSwap.sol:PancakeSwap",
        "label": "factoryAddress",
        "offset": 0,
        "slot": "0",
        "type": "t_address"
      },
      {
        "astId": 15598,
        "contract": "contracts/PancakeSwap.sol:PancakeSwap",
        "label": "pancakeFactory",
        "offset": 0,
        "slot": "1",
        "type": "t_contract(IPancakeFactory)17175"
      }
    ],
    "types": {
      "t_address": {
        "encoding": "inplace",
        "label": "address",
        "numberOfBytes": "20"
      },
      "t_contract(IPancakeFactory)17175": {
        "encoding": "inplace",
        "label": "contract IPancakeFactory",
        "numberOfBytes": "20"
      }
    }
  }
}