{
  "address": "0x9B073379C2fCfb335F18aE88bb24bdC50D7c3B08",
  "abi": [
    {
      "inputs": [
        {
          "internalType": "address",
          "name": "_factoryAddress",
          "type": "address"
        },
        {
          "internalType": "address",
          "name": "_baseCurrency",
          "type": "address"
        }
      ],
      "stateMutability": "nonpayable",
      "type": "constructor"
    },
    {
      "inputs": [],
      "name": "PRECISION_DECIMALS",
      "outputs": [
        {
          "internalType": "uint256",
          "name": "",
          "type": "uint256"
        }
      ],
      "stateMutability": "view",
      "type": "function"
    },
    {
      "inputs": [],
      "name": "baseCurrency",
      "outputs": [
        {
          "internalType": "address",
          "name": "",
          "type": "address"
        }
      ],
      "stateMutability": "view",
      "type": "function"
    },
    {
      "inputs": [
        {
          "internalType": "address",
          "name": "token",
          "type": "address"
        },
        {
          "internalType": "address[]",
          "name": "tokenList",
          "type": "address[]"
        }
      ],
      "name": "getLargestPool",
      "outputs": [
        {
          "internalType": "address",
          "name": "",
          "type": "address"
        },
        {
          "internalType": "address",
          "name": "",
          "type": "address"
        },
        {
          "internalType": "uint256",
          "name": "",
          "type": "uint256"
        }
      ],
      "stateMutability": "view",
      "type": "function"
    },
    {
      "inputs": [
        {
          "internalType": "address",
          "name": "token0",
          "type": "address"
        },
        {
          "internalType": "address",
          "name": "token1",
          "type": "address"
        },
        {
          "internalType": "address",
          "name": "",
          "type": "address"
        }
      ],
      "name": "getPriceVsToken",
      "outputs": [
        {
          "internalType": "uint256",
          "name": "",
          "type": "uint256"
        }
      ],
      "stateMutability": "view",
      "type": "function"
    },
    {
      "inputs": [
        {
          "internalType": "address",
          "name": "token",
          "type": "address"
        }
      ],
      "name": "getUnderlying",
      "outputs": [
        {
          "internalType": "address[]",
          "name": "",
          "type": "address[]"
        },
        {
          "internalType": "uint256[]",
          "name": "",
          "type": "uint256[]"
        }
      ],
      "stateMutability": "view",
      "type": "function"
    },
    {
      "inputs": [
        {
          "internalType": "address",
          "name": "token",
          "type": "address"
        }
      ],
      "name": "isPool",
      "outputs": [
        {
          "internalType": "bool",
          "name": "",
          "type": "bool"
        }
      ],
      "stateMutability": "view",
      "type": "function"
    }
  ],
  "transactionHash": "0xa13e1896f52421a156451f140adf366115dd73ee97353371807be675eee3b84c",
  "args": [
    "0xbAF9A5d4b0052359326A6CDAb54BABAa3a3A9643",
    "0xC02aaA39b223FE8D0A0e5C4F27eAD9083C756Cc2"
  ],
  "solcInputHash": "86d506d2241e5c8b968af832cc4a1274",
  "bytecode": "0x6080604052600280546001600160a01b031916905534801561002057600080fd5b506040516110723803806110728339818101604052604081101561004357600080fd5b508051602090910151816001600160a01b0381166100a8576040805162461bcd60e51b815260206004820152601360248201527f466163746f7279206d7573742062652073657400000000000000000000000000604482015290519081900360640190fd5b600080546001600160a01b0319166001600160a01b0383161790556100cb6100f2565b50600280546001600160a01b0319166001600160a01b039290921691909117905550610116565b600054600180546001600160a01b0319166001600160a01b03909216919091179055565b610f4d806101256000396000f3fe608060405234801561001057600080fd5b50600436106100625760003560e01c806303764923146100675780634e89a711146100b15780635b16ebb7146101705780635e72f13a146101aa57806360ebfee61461028557806392a85fde1461028d575b600080fd5b61009f6004803603606081101561007d57600080fd5b506001600160a01b0381358116916020810135821691604090910135166102b1565b60408051918252519081900360200190f35b6100d7600480360360208110156100c757600080fd5b50356001600160a01b031661053e565b604051808060200180602001838103835285818151815260200191508051906020019060200280838360005b8381101561011b578181015183820152602001610103565b50505050905001838103825284818151815260200191508051906020019060200280838360005b8381101561015a578181015183820152602001610142565b5050505090500194505050505060405180910390f35b6101966004803603602081101561018657600080fd5b50356001600160a01b0316610b2f565b604080519115158252519081900360200190f35b61025b600480360360408110156101c057600080fd5b6001600160a01b038235169190810190604081016020820135600160201b8111156101ea57600080fd5b8201836020820111156101fc57600080fd5b803590602001918460208302840111600160201b8311171561021d57600080fd5b919080806020026020016040519081016040528093929190818152602001838360200280828437600092019190915250929550610bb2945050505050565b604080516001600160a01b0394851681529290931660208301528183015290519081900360600190f35b61009f610cd1565b610295610cd6565b604080516001600160a01b039092168252519081900360200190f35b6001546040805163901754d760e01b81526001600160a01b038681166004830152858116602483015291516000938493169163901754d7916044808301926020929190829003018186803b15801561030857600080fd5b505afa15801561031c573d6000803e3d6000fd5b505050506040513d602081101561033257600080fd5b50516040805163e7ff42c960e01b81526001600160a01b0388811660048301529151929350839260009284169163e7ff42c9916024808301926020929190829003018186803b15801561038457600080fd5b505afa158015610398573d6000803e3d6000fd5b505050506040513d60208110156103ae57600080fd5b50516040805163e7ff42c960e01b81526001600160a01b03898116600483015291519293506000929185169163e7ff42c991602480820192602092909190829003018186803b15801561040057600080fd5b505afa158015610414573d6000803e3d6000fd5b505050506040513d602081101561042a57600080fd5b50516040805163313ce56760e01b815290519192506000916001600160a01b038b169163313ce567916004808301926020929190829003018186803b15801561047257600080fd5b505afa158015610486573d6000803e3d6000fd5b505050506040513d602081101561049c57600080fd5b50516040805163313ce56760e01b8152905160ff90921692506000916001600160a01b038b169163313ce567916004808301926020929190829003018186803b1580156104e857600080fd5b505afa1580156104fc573d6000803e3d6000fd5b505050506040513d602081101561051257600080fd5b505160ff169050600084828403601201600a0a85028161052e57fe5b049b9a5050505050505050505050565b604080516002808252606080830184529283928592849260208301908036833750506040805160028082526060808301845294955090925090602083019080368337019050509050826001600160a01b0316630dfe16816040518163ffffffff1660e01b815260040160206040518083038186803b1580156105bf57600080fd5b505afa1580156105d3573d6000803e3d6000fd5b505050506040513d60208110156105e957600080fd5b5051825183906000906105f857fe5b60200260200101906001600160a01b031690816001600160a01b031681525050826001600160a01b031663d21220a76040518163ffffffff1660e01b815260040160206040518083038186803b15801561065157600080fd5b505afa158015610665573d6000803e3d6000fd5b505050506040513d602081101561067b57600080fd5b505182518390600190811061068c57fe5b60200260200101906001600160a01b031690816001600160a01b0316815250506000806001600160a01b0316836000815181106106c557fe5b60200260200101516001600160a01b03161461075957826000815181106106e857fe5b60200260200101516001600160a01b031663313ce5676040518163ffffffff1660e01b815260040160206040518083038186803b15801561072857600080fd5b505afa15801561073c573d6000803e3d6000fd5b505050506040513d602081101561075257600080fd5b505161075c565b60125b60ff16905060008360018151811061077057fe5b60200260200101516001600160a01b031663313ce5676040518163ffffffff1660e01b815260040160206040518083038186803b1580156107b057600080fd5b505afa1580156107c4573d6000803e3d6000fd5b505050506040513d60208110156107da57600080fd5b50516040805163313ce56760e01b8152905160ff90921692506000916001600160a01b038b169163313ce567916004808301926020929190829003018186803b15801561082657600080fd5b505afa15801561083a573d6000803e3d6000fd5b505050506040513d602081101561085057600080fd5b5051855160ff90911691506000906001600160a01b0388169063e7ff42c9908890849061087957fe5b60200260200101516040518263ffffffff1660e01b815260040180826001600160a01b0316815260200191505060206040518083038186803b1580156108be57600080fd5b505afa1580156108d2573d6000803e3d6000fd5b505050506040513d60208110156108e857600080fd5b505186519091506000906001600160a01b0389169063e7ff42c9908990600190811061091057fe5b60200260200101516040518263ffffffff1660e01b815260040180826001600160a01b0316815260200191505060206040518083038186803b15801561095557600080fd5b505afa158015610969573d6000803e3d6000fd5b505050506040513d602081101561097f57600080fd5b5051604080516318160ddd60e01b815290519192506000916001600160a01b038b16916318160ddd916004808301926020929190829003018186803b1580156109c757600080fd5b505afa1580156109db573d6000803e3d6000fd5b505050506040513d60208110156109f157600080fd5b50519050821580610a00575081155b80610a09575080155b15610a5657600087600081518110610a1d57fe5b602002602001018181525050600087600181518110610a3857fe5b602090810291909101015250959850939650610b2a95505050505050565b80601287860301600a0a840281610a6957fe5b0487600081518110610a7757fe5b60200260200101818152505080601286860301600a0a830281610a9657fe5b0487600181518110610aa457fe5b60200260200101818152505060006001600160a01b031688600081518110610ac857fe5b60200260200101516001600160a01b03161415610b1c5760025488516001600160a01b03909116908990600090610afb57fe5b60200260200101906001600160a01b031690816001600160a01b0316815250505b509598509396505050505050505b915091565b60015460408051635b16ebb760e01b81526001600160a01b03848116600483015291516000939290921691635b16ebb791602480820192602092909190829003018186803b158015610b8057600080fd5b505afa158015610b94573d6000803e3d6000fd5b505050506040513d6020811015610baa57600080fd5b505192915050565b600080808080808080805b8951811015610cc0576001548a516001600160a01b039091169063901754d7908d908d9085908110610beb57fe5b60200260200101516040518363ffffffff1660e01b815260040180836001600160a01b03168152602001826001600160a01b031681526020019250505060206040518083038186803b158015610c4057600080fd5b505afa158015610c54573d6000803e3d6000fd5b505050506040513d6020811015610c6a57600080fd5b505192506001600160a01b03831615610c8e57610c87838c610ce5565b9150610c93565b600091505b85821115610cb857819550898181518110610caa57fe5b602002602001015194508293505b600101610bbd565b509299919850929650945050505050565b601281565b6002546001600160a01b031681565b6000808390506000816001600160a01b0316630dfe16816040518163ffffffff1660e01b815260040160206040518083038186803b158015610d2657600080fd5b505afa158015610d3a573d6000803e3d6000fd5b505050506040513d6020811015610d5057600080fd5b50516040805163d21220a760e01b815290519192506000916001600160a01b0385169163d21220a7916004808301926020929190829003018186803b158015610d9857600080fd5b505afa158015610dac573d6000803e3d6000fd5b505050506040513d6020811015610dc257600080fd5b50516040805163e7ff42c960e01b81526001600160a01b0385811660048301529151929350600092839287169163e7ff42c9916024808301926020929190829003018186803b158015610e1457600080fd5b505afa925050508015610e3957506040513d6020811015610e3457600080fd5b505160015b610e465760009150610e49565b91505b846001600160a01b031663e7ff42c9846040518263ffffffff1660e01b815260040180826001600160a01b0316815260200191505060206040518083038186803b158015610e9657600080fd5b505afa925050508015610ebb57506040513d6020811015610eb657600080fd5b505160015b610ec757506000610eca565b90505b6001600160a01b038416610ee7576002546001600160a01b031693505b6000846001600160a01b0316886001600160a01b031614610f085781610f0a565b825b999850505050505050505056fea26469706673582212200e85773f0927044b658bfb07d355d78b5b5c642eacf104324c1ce516ff276a1864736f6c634300060c0033",
  "devdoc": {
    "kind": "dev",
    "methods": {
      "getLargestPool(address,address[])": {
        "details": "Gives a pool with largest liquidity for a given token and a given tokenset (either keyTokens or pricingTokens)"
      },
      "getPriceVsToken(address,address,address)": {
        "details": "Generic function giving the price of a given token vs another given token"
      },
      "getUnderlying(address)": {
        "details": "Get underlying tokens and amounts"
      },
      "isPool(address)": {
        "details": "Check what token is pool of this Swap"
      }
    },
    "version": 1
  },
  "userdoc": {
    "kind": "user",
    "methods": {},
    "version": 1
  },
  "storageLayout": {
    "storage": [
      {
        "astId": 16132,
        "contract": "contracts/OneInchSwap.sol:OneInchSwap",
        "label": "factoryAddress",
        "offset": 0,
        "slot": "0",
        "type": "t_address"
      },
      {
        "astId": 5734,
        "contract": "contracts/OneInchSwap.sol:OneInchSwap",
        "label": "oneInchFactory",
        "offset": 0,
        "slot": "1",
        "type": "t_contract(IMooniFactory)17087"
      },
      {
        "astId": 5740,
        "contract": "contracts/OneInchSwap.sol:OneInchSwap",
        "label": "baseCurrency",
        "offset": 0,
        "slot": "2",
        "type": "t_address"
      }
    ],
    "types": {
      "t_address": {
        "encoding": "inplace",
        "label": "address",
        "numberOfBytes": "20"
      },
      "t_contract(IMooniFactory)17087": {
        "encoding": "inplace",
        "label": "contract IMooniFactory",
        "numberOfBytes": "20"
      }
    }
  }
}